:020000040800F2
:10000000005000206D0D0008A90C0008B10C00087C
:10001000B90C0008C10C0008C90C00080000000061
:10002000000000000000000000000000D10C0008EB
:10003000DD0C000800000000E90C0008F50C0008C9
:10004000B50D0008010D0008B50D0008B50D00083C
:100050000D0D0008190D0008B50D0008B50D0008BC
:10006000B50D0008B50D0008B50D0008B50D000868
:10007000B50D0008B50D0008B50D0008B50D000858
:10008000B50D0008B50D0008B50D0008B50D000848
:10009000B50D0008B50D0008B50D0008B50D000838
:1000A000B50D0008B50D0008B50D0008B50D000828
:1000B000250D0008B50D0008390D0008B50D000824
:1000C000B50D0008B50D0008B50D0008B50D000808
:1000D000B50D00084D0D0008B50D0008B50D000860
:1000E000B50D0008B50D0008B50D000800000000B2
:1000F0000000000000000000000000000000000000
:0C01000000000000000000005FF808F1A3
:10010C0010B5054C237833B9044B13B10448AFF345
:10011C0000800123237010BD680000200000000047
:10012C00183E000808B5034B1BB103490348AFF355
:10013C00008008BD000000006C000020183E000884
:10014C0080B584B000AFF8607B600B467B811346B2
:10015C003B81FB69632B01DD6323FB61FB6913F1BD
:10016C00630F02DA6FF06203FB61FB69002B28DD81
:10017C007B8901221946F86801F077FB3B89002244
:10018C001946F86801F071FBBB69002B04D17B6840
:10019C001B68FA695A6364E0BB69042B04D17B6861
:1001AC001A68FB6993635CE0BB69082B04D17B681C
:1001BC001A68FB69D36354E07B681A68FB691364A3
:1001CC004FE0FB69002B2FDA7B8900221946F86877
:1001DC0001F04BFB3B8901221946F86801F045FB05
:1001EC00BB69002B05D1FB695A427B681B685A63BB
:1001FC0037E0BB69042B06D1FB6959427B681A684E
:10020C000B4693632DE0BB69082B06D1FB69594261
:10021C007B681A680B46D36323E0FB6959427B6801
:10022C001A680B4613641CE0BB69002B04D17B6875
:10023C001B6800225A6314E0BB69042B04D17B6851
:10024C001A68002393630CE0BB69082B04D17B680C
:10025C001A680023D36304E07B681A6800231364D4
:10026C00FFE700BF1037BD4680BD0000B0B586B0BB
:10027C0002AFF860B9607A603B60244B1868234B7E
:10028C009988224BDC88214BDD68204B1B69FA686E
:10029C00019200932B462246FFF752FF1B4B186826
:1002AC001A4B1989194B5C89184BDD68174B5B6924
:1002BC00BA68019200932B462246FFF741FF144B7C
:1002CC001868134B9988124BDC88114BDD68104B66
:1002DC001B697A68019200932B462246FFF730FF88
:1002EC000B4B18680A4B1989094B5C89084BDD6864
:1002FC00074B5B693A68019200932B462246FFF745
:10030C001FFF00BF1037BD46B0BD00BF000000206E
:10031C001C00002080B584B000AF6C4B1B686B4A8E
:10032C0092881146184601F089FA03461A46684B22
:10033C001A70664B1B68654AD2881146184601F044
:10034C007DFA03461A46634B1A70604B1B685F4A72
:10035C0012891146184601F071FA03461A465E4B93
:10036C001A705A4B1B68594A52891146184601F0AB
:10037C0065FA03461A46594B1A70544B1B68534A7C
:10038C0092891146184601F059FA03461A46544B05
:10039C001A704F4B1B78002B0CBF01230023DBB2D0
:1003AC001A464B4B1A704B4B1B78002B0CBF01237E
:1003BC000023DBB21A46474B1A70474B1B78002BB5
:1003CC000CBF01230023DBB21A46434B1A70434B7C
:1003DC001B78002B0CBF01230023DBB21A463F4BCA
:1003EC001A703F4B1B78002B0CBF01230023DBB290
:1003FC001A463B4B1A70364B1A78364B1B789A427E
:10040C0016D1344B1A78344B1B789A4210D1324B9C
:10041C001A78324B1B789A420AD1304B1A78304BEF
:10042C001B789A4204D14FF0FF337B607B6849E024
:10043C000023FB600023BB60254B1B78002B05D0F1
:10044C00FB68023BFB60BB680133BB60214B1B7834
:10045C00002B05D0FB68013BFB60BB680133BB6024
:10046C001D4B1B78002B02D0BB680133BB601B4BB0
:10047C001B78002B05D0FB680133FB60BB68013394
:10048C00BB60174B1B78002B05D0FB680233FB605D
:10049C00BB680133BB60BB68002B08D0FA68BB6833
:1004AC0092FBF3F3FB600F4AFB68136009E00D4B02
:1004BC001B68002B03DA6FF00203FB6001E00323DF
:1004CC00FB60FB6818461037BD4680BD3800002025
:1004DC00A4010020A5010020A6010020A7010020F6
:1004EC00A8010020AC01002080B582B000AF78607C
:1004FC0039603B683A6879687868FFF7B7FE00BFE7
:10050C000837BD4680BD80B586B000AFFFF702FF4F
:10051C0078617B69B3F1FF3F04D100210020FFF724
:10052C00E3FF15E050233B611423FB60FB687A6901
:10053C0002FB03F33A691344BB60FB687A6902FB64
:10054C0003F33A69D31A7B607968B868FFF7CCFF7C
:10055C0000BF1837BD4680BD80B500AF00F026FC4B
:10056C0000F040F800F0C6F900F0D2F800F048F9BD
:10057C0000F096F900F07CF80021164801F0A0FE7E
:10058C000421144801F09CFE0821124801F098FE49
:10059C000C21104801F094FE0E4B1B685A6C0D4B4D
:1005AC001B6842F400425A6408210B4801F02AFFF0
:1005BC000A4801F0EBFD0A4B1B68094A918800229E
:1005CC00184601F052F9FFF79EFF012000F050FC95
:1005DC0000BFF8E7CC0000201401002084000020AC
:1005EC004800002080B590B000AF07F11803282216
:1005FC000021184603F0DEFB3B1D00221A605A60F6
:10060C009A60DA601A610123BB614FF48033FB619D
:10061C0000233B620123BB6202237B634FF48033D4
:10062C00BB634FF4E013FB6307F11803184601F0AA
:10063C004DF90346002B01D000F0FEF90F237B602F
:10064C000223BB600023FB604FF480633B610023FB
:10065C007B613B1D0221184601F0BAFB0346002BBF
:10066C0001D000F0E9F900BF4037BD4680BD000065
:10067C0080B586B000AF07F1080300221A605A60FB
:10068C009A60DA603B4600221A605A601E4B1F4A81
:10069C001A601D4B47225A601B4B00229A601A4B62
:1006AC004FF6FF72DA60184B00221A61164B0022CB
:1006BC005A61154B00229A61134801F017FD03464D
:1006CC00002B01D000F0B8F94FF48053BB6007F158
:1006DC00080319460C4802F053F90346002B01D0CD
:1006EC0000F0AAF900233B6000237B603B461946CF
:1006FC00054802F0BDFD0346002B01D000F09CF92B
:10070C0000BF1837BD4680BD84000020002C01407E
:10071C0080B58AB000AF07F1200300221A605A603E
:10072C003B1D00221A605A609A60DA601A615A61A5
:10073C009A61324B4FF080421A60304B47225A601C
:10074C002E4B00229A602D4B6322DA602B4B002239
:10075C001A612A4B00229A61284801F061FD034678
:10076C00002B01D000F068F900233B6200237B6270
:10077C0007F120031946214802F07AFD0346002BAD
:10078C0001D000F059F960237B600023BB6000238B
:10079C00FB6000237B613B1D00221946174802F0C9
:1007AC002DF80346002B01D000F046F93B1D042226
:1007BC001946124802F022F80346002B01D000F033
:1007CC003BF93B1D082219460C4802F017F803466A
:1007DC00002B01D000F030F93B1D0C2219460748C4
:1007EC0002F00CF80346002B01D000F025F9034869
:1007FC0000F0D0F900BF2837BD4680BDCC000020EA
:10080C0080B588B000AF07F10C0300221A605A6063
:10081C009A60DA601A613B1D00221A605A601E4B06
:10082C001E4A1A601C4B47225A601B4B00229A60CE
:10083C00194B4FF6FF72DA60174B00221A61164BF8
:10084C0000229A61144801F051FC0346002B01D0A0
:10085C0000F0F2F80023FB6000233B6107F10C036E
:10086C0019460D4802F053F90346002B01D000F055
:10087C00E3F800237B600023BB603B1D1946064850
:10088C0002F0F6FC0346002B01D000F0D5F800BFB7
:10089C002037BD4680BD00BF140100200008004079
:1008AC0080B500AF114B124A1A60104B4FF4E13275
:1008BC005A600E4B00229A600C4B0022DA600B4BF4
:1008CC0000221A61094B0C225A61084B00229A61D2
:1008DC00064B0022DA61054802F03AFD0346002B74
:1008EC0001D000F0A9F800BF80BD00BF5C01002062
:1008FC000038014080B588B000AF07F1100300222A
:10090C001A605A609A60DA60484B9B69474A43F018
:10091C0020039361454B9B6903F02003FB60FB684C
:10092C00424B9B69414A43F0040393613F4B9B69E3
:10093C0003F00403BB60BB683C4B9B693B4A43F030
:10094C0008039361394B9B6903F008037B607B6858
:10095C000022F021364800F088FF002240F6834147
:10096C00344800F082FFF0233B6101237B610023BC
:10097C00BB610223FB6107F1100319462C4800F000
:10098C00D9FD40F603433B6101237B610023BB612E
:10099C000223FB6107F110031946264800F0CAFD3B
:1009AC0047F208033B6100237B610123BB6107F124
:1009BC00100319461F4800F0BDFD4FF400433B6186
:1009CC0000237B610223BB6107F110031946194810
:1009DC0000F0B0FD40233B6100237B610023BB6131
:1009EC0007F110031946134800F0A4FD80233B6166
:1009FC0001237B610023BB610123FB6107F1100321
:100A0C0019460C4800F096FD4FF480733B610023AF
:100A1C007B610023BB6107F110031946054800F008
:100A2C0089FD00BF2037BD4680BD00BF00100240CD
:100A3C0000080140000C014080B400AF72B600BF4A
:100A4C0000BFFDE780B584B000AF214B9B69204A05
:100A5C0043F0010393611E4B9B6903F00103BB60E0
:100A6C00BB681B4BDB691A4A43F08053D361184BAC
:100A7C00DB6903F080537B607B680022002101203E
:100A8C0000F0F1FA012000F00AFB00220021042002
:100A9C0000F0E9FA042000F002FB002200210520FE
:100AAC0000F0E1FA052000F0FAFA0A4B5B68FB60F3
:100ABC00FB6823F0E063FB60FB6843F00073FB60B2
:100ACC00044AFB68536000BF1037BD4680BD00BFB1
:100ADC00001002400000014080B584B000AF786087
:100AEC007B681B68164A93420CD1164B9B69154ABE
:100AFC0043F400639361134B9B6903F40063FB6045
:100B0C00FB6818E07B681B680F4A934213D10D4BAE
:100B1C00DB690C4A43F00403D3610A4BDB6903F035
:100B2C000403BB60BB68002200211E2000F09BFA6E
:100B3C001E2000F0B4FA00BF1037BD4680BD00BFC8
:100B4C00002C0140001002400008004080B584B029
:100B5C0000AF78607B681B68B3F1804F13D10C4BEE
:100B6C00DB690B4A43F00103D361094BDB6903F0EA
:100B7C000103FB60FB68002200211C2000F073FACB
:100B8C001C2000F08CFA00BF1037BD4680BD00BFA2
:100B9C000010024080B588B000AF786007F11003F8
:100BAC0000221A605A609A60DA607B681B68B3F1A5
:100BBC00804F17D10D4B9B690C4A43F00403936192
:100BCC000A4B9B6903F00403FB60FB680F233B613A
:100BDC0002237B610123FB6107F1100319460448D2
:100BEC0000F0A8FC00BF2037BD4680BD00100240BD
:100BFC000008014080B588B000AF786007F11003A1
:100C0C0000221A605A609A60DA607B681B68204A7E
:100C1C00934239D11F4B9B691E4A43F48043936125
:100C2C001C4B9B6903F48043FB60FB68194B9B696D
:100C3C00184A43F004039361164B9B6903F00403B9
:100C4C00BB60BB684FF400733B6102237B610323E1
:100C5C00FB6107F1100319460F4800F06BFC4FF4D1
:100C6C0080633B6100237B610023BB6107F11003B0
:100C7C001946094800F05EFC00220021252000F0F6
:100C8C00F2F9252000F00BFA00BF2037BD4680BDDD
:100C9C0000380140001002400008014080B400AF51
:100CAC0000BFFDE780B400AF00BFFDE780B400AF2C
:100CBC0000BFFDE780B400AF00BFFDE780B400AF1C
:100CCC0000BFFDE780B400AF00BFBD4680BC7047DD
:100CDC0080B400AF00BFBD4680BC704780B400AF8D
:100CEC0000BFBD4680BC704780B500AF00F0A4F8D3
:100CFC0000BF80BD80B500AF00F0D0FD00BF80BD4F
:100D0C0080B500AF00F098FA00BF80BD80B400AF92
:100D1C0000BFBD4680BC704780B500AF024801F0F3
:100D2C007DFC00BF80BD00BFCC00002080B500AFB3
:100D3C00024801F073FC00BF80BD00BF140100200D
:100D4C0080B500AF024802F053FB00BF80BD00BF6E
:100D5C005C01002080B400AF00BFBD4680BC704772
:100D6C00FFF7F8FF0B480C490C4A002302E0D4585B
:100D7C00C4500433C4188C42F9D3094A094C0023DB
:100D8C0001E013600432A242FBD303F01BF8FFF71F
:100D9C00E3FB70470000002064000020643E000864
:100DAC0068000020D8010020FEE7000080B500AFED
:100DBC00084B1B68074A43F010031360032000F034
:100DCC0047F90F2000F008F8FFF73CFE0023184607
:100DDC0080BD00BF0020024080B582B000AF7860BB
:100DEC00124B1A68124B1B7819464FF47A73B3FBEB
:100DFC00F1F3B2FBF3F3184600F05FF90346002B56
:100E0C0001D001230EE07B680F2B0AD800227968F1
:100E1C004FF0FF3000F027F9064A7B68136000237F
:100E2C0000E0012318460837BD4680BD580000205D
:100E3C00600000205C00002080B400AF054B1B78E4
:100E4C001A46054B1B681344034A136000BFBD468A
:100E5C0080BC704760000020B001002080B400AF5F
:100E6C00024B1B681846BD4680BC7047B001002081
:100E7C0080B584B000AF7860FFF7F0FFB8607B6896
:100E8C00FB60FB68B3F1FF3F05D00A4B1B781A4699
:100E9C00FB681344FB6000BFFFF7E0FF0246BB6832
:100EAC00D31AFA689A42F7D800BF00BF1037BD4674
:100EBC0080BD00BF6000002080B485B000AF7860BA
:100ECC007B6803F00703FB600C4BDB68BB60BA6804
:100EDC004FF6FF031340BB60FB681A02BB68134359
:100EEC0043F0BF6343F40033BB60044ABB68D36078
:100EFC0000BF1437BD4680BC704700BF00ED00E05A
:100F0C0080B400AF044BDB681B0A03F007031846E0
:100F1C00BD4680BC704700BF00ED00E080B483B0DC
:100F2C0000AF0346FB7197F90730002B0BDBFB7905
:100F3C0003F01F02064997F907305B09012000FAFC
:100F4C0002F241F8232000BF0C37BD4680BC70472D
:100F5C0000E100E080B483B000AF03463960FB7160
:100F6C0097F90730002B0ADB3B68DAB20C4997F98A
:100F7C0007301201D2B20B4483F800230AE03B681D
:100F8C00DAB20849FB7903F00F03043B1201D2B229
:100F9C000B441A7600BF0C37BD4680BC704700BFAF
:100FAC0000E100E000ED00E080B489B000AFF86033
:100FBC00B9607A60FB6803F00703FB61FB69C3F15E
:100FCC000703042B28BF0423BB61FB690433062BE6
:100FDC0002D9FB69033B00E000237B614FF0FF3239
:100FEC00BB6902FA03F3DA43BB681A407B699A4087
:100FFC004FF0FF317B6901FA03F3D9437B680B4057
:10100C00134318462437BD4680BC704780B582B068
:10101C0000AF78607B68013BB3F1807F01D3012383
:10102C000FE00A4A7B68013B53600F214FF0FF3001
:10103C00FFF790FF054B00229A60044B07221A60C1
:10104C00002318460837BD4680BD00BF10E000E005
:10105C0080B582B000AF78607868FFF72DFF00BFD5
:10106C000837BD4680BD80B586B000AF0346B96079
:10107C007A60FB7300237B61FFF742FF78617A682B
:10108C00B9687869FFF790FF024697F90F3011465F
:10109C001846FFF75FFF00BF1837BD4680BD80B50F
:1010AC0082B000AF0346FB7197F907301846FFF783
:1010BC0035FF00BF0837BD4680BD80B582B000AF9C
:1010CC0078607868FFF7A2FF034618460837BD46DC
:1010DC0080BD80B485B000AF78600023FB737B6863
:1010EC0093F82130DBB2022B08D07B6804229A6380
:1010FC007B68002283F82020012320E07B681B689A
:10110C001A687B681B6822F00E021A607B681B68E9
:10111C001A687B681B6822F001021A607B681A6CE3
:10112C007B68DB6B012101FA02F25A607B680122B9
:10113C0083F821207B68002283F82020FB7B184653
:10114C001437BD4680BC704780B584B000AF786062
:10115C000023FB737B6893F82130DBB2022B05D0A4
:10116C007B6804229A630123FB7351E07B681B6844
:10117C001A687B681B6822F00E021A607B681B6879
:10118C001A687B681B6822F001021A607B681B6876
:10119C00224A934229D07B681B68214A934222D071
:1011AC007B681B681F4A93421AD07B681B681E4AD7
:1011BC00934212D07B681B681C4A93420AD07B680E
:1011CC001B681B4A934202D14FF480130EE04FF080
:1011DC0080730BE04FF4803308E04FF4805305E04C
:1011EC004FF4807302E0102300E00123114A536096
:1011FC007B68012283F821207B68002283F8202061
:10120C007B685B6B002B03D07B685B6B78689847C3
:10121C00FB7B18461037BD4680BD00BF080002405E
:10122C001C000240300002404400024058000240C2
:10123C006C0002400000024080B582B000AF002379
:10124C007B606B4BDB6803F01003002B05D1684B04
:10125C00DB6803F00403002B0ED0664B9B687B60AD
:10126C00644B4FF0FF329A6000F0F4F8786800F0AD
:10127C00CCF8604B00221A705D4BDB6803F0200346
:10128C00002B00F0A0805A4B2022DA60594B1B78BF
:10129C00DBB2002B00F09780564B1B78DBB2012B96
:1012AC002DD1544B5B68013B524A5360514B5B68E8
:1012BC00002B17D04F4B9B687B60786800F09CF834
:1012CC004C4B9B6803F580637B604A4A7B68936058
:1012DC00474B1B69464A23F002031361786800F000
:1012EC0009F970E04FF0FF337B60424A7B689360F2
:1012FC00404B00221A70786800F07EF863E03D4B9A
:10130C001B78DBB2022B0CD1394B1B69384A23F00A
:10131C0004031361002000F06FF8364B00221A70A2
:10132C0051E0344B5B68013B324A5360314B5B6894
:10133C00002B24D02F4B9B6802332E4A93602D4BED
:10134C009B687B602B4BD3E904014FF000024FF0FC
:10135C000003020C42EA01420B0C2649C1E90423AA
:10136C00234B1B69224A23F001031361214BD3E960
:10137C00042393B21946786800F050F823E01D4B13
:10138C001B78DBB2032B05D11A4B9B68184600F077
:10139C0033F811E0174B1B78DBB2042B06D1154B3D
:1013AC009B68023B184600F027F805E0114B9B6840
:1013BC00063B184600F020F80E4B4FF0FF329A60B7
:1013CC000C4B00221A700B4B1B78DBB2002B0BD191
:1013DC00074B1B69064A23F007031361044B1B6977
:1013EC00034A23F4A053136100BF0837BD4680BDE8
:1013FC0000200240B801002080B483B000AF7860B8
:10140C0000BF0C37BD4680BC704780B483B000AFC2
:10141C00786000BF0C37BD4680BC704780B483B089
:10142C0000AF78600B467B80084B0022DA61084BDA
:10143C001B69074A43F0010313617B687A881A80A1
:10144C0000BF0C37BD4680BC704700BFB801002000
:10145C000020024080B483B000AF00237B60234B9C
:10146C00DB6803F01003002B09D0214BDB6943F040
:10147C0002031F4AD3617B6843F010037B601B4B54
:10148C00DB6803F00403002B09D0194BDB6943F034
:10149C000103174AD3617B6843F004037B60134B51
:1014AC00DB6903F00103002B0BD0114BDB6943F01C
:1014BC0004030F4AD3610D4BDB690C4A23F0010383
:1014CC00D3617B6840F20112934206D1074BDB6972
:1014DC00064A23F00103D36102E0044A7B68D3601F
:1014EC0000BF0C37BD4680BC704700BF00200240D7
:1014FC00B801002080B483B000AF78600B4B0022A1
:10150C00DA610B4B1B690A4A43F002031361084A68
:10151C007B685361064B1B69054A43F0400313611A
:10152C0000BF0C37BD4680BC704700BFB80100201F
:10153C000020024080B48BB000AF7860396000238B
:10154C007B6200233B6269E101227B6A02FA03F3AE
:10155C00FB613B681B68FA691340BB61BA69FB69A4
:10156C009A4240F058813B685B689A4A93425ED03D
:10157C00984A934275D8984A934258D0964A9342C7
:10158C006FD8964A934252D0944A934269D8944A5F
:10159C0093424CD0924A934263D8924A934246D09B
:1015AC00904A93425DD8122B2AD8122B59D801A2FB
:1015BC0052F823F03B1600081516000827160008F1
:1015CC00691600086F1600086F1600086F160008E1
:1015DC006F1600086F1600086F1600086F160008CB
:1015EC006F1600086F1600086F1600086F160008BB
:1015FC006F1600086F1600081D160008311600083B
:10160C00794A934213D02CE03B68DB683B6229E0BB
:10161C003B68DB6804333B6224E03B68DB680833DF
:10162C003B621FE03B68DB680C333B621AE03B68B3
:10163C009B68002B02D104233B6213E03B689B6840
:10164C00012B05D108233B627B68FA691A6109E01A
:10165C0008233B627B68FA695A6103E000233B6212
:10166C0000E000BFBB69FF2B01D87B6801E07B6801
:10167C0004337B61BB69FF2B02D87B6A9B0002E0C1
:10168C007B6A083B9B003B617B691A680F213B69B5
:10169C0001FA03F3DB431A40396A3B6901FA03F39D
:1016AC001A437B691A603B685B6803F08053002B1C
:1016BC0000F0B1804D4B9B694C4A43F001039361A0
:1016CC004A4B9B6903F00103BB60BB68484A7B6AC9
:1016DC009B08023352F82330FB607B6A03F0030350
:1016EC009B000F2202FA03F3DB43FA681340FB6002
:1016FC007B68404A934213D07B683F4A93420DD09B
:10170C007B683E4A934207D07B683D4A934201D1A5
:10171C00032306E0042304E0022302E0012300E09B
:10172C0000237A6A02F0030292009340FA68134392
:10173C00FB602F497B6A9B080233FA6841F823202F
:10174C003B685B6803F48013002B06D02D4B9A6822
:10175C002C49BB6913438B6006E02A4B9A68BB6922
:10176C00DB43284913408B603B685B6803F4001330
:10177C00002B06D0234BDA682249BB691343CB609C
:10178C0006E0204BDA68BB69DB431E491340CB6093
:10179C003B685B6803F40033002B06D0194B5A6886
:1017AC001849BB6913434B6006E0164B5A68BB697A
:1017BC00DB43144913404B603B685B6803F4803394
:1017CC00002B21D00F4B1A680E49BB6913430B60D9
:1017DC0021E000BF00003210000031100000221088
:1017EC000000211000001210000011100010024027
:1017FC000000014000080140000C014000100140B5
:10180C0000140140000401400B4B1A68BB69DB4318
:10181C00094913400B607B6A01337B623B681A6891
:10182C007B6A22FA03F3002B7FF48EAE00BF00BF5D
:10183C002C37BD4680BC70470004014080B485B095
:10184C0000AF78600B467B807B689A687B8813407E
:10185C00002B02D00123FB7301E00023FB73FB7B05
:10186C0018461437BD4680BC704780B483B000AFB7
:10187C0078600B467B8013467B707B78002B03D003
:10188C007A887B681A6103E07B881A047B681A618A
:10189C0000BF0C37BD4680BC7047000080B500AF60
:1018AC00064B5B6903F48033002B05D000F008F87D
:1018BC00024B4FF480325A6100BF80BD00040140DE
:1018CC0080B400AF00BFBD4680BC704780B586B009
:1018DC0000AF78607B68002B01D1012372E27B683A
:1018EC001B6803F00103002B00F08780924B5B68B0
:1018FC0003F00C03042B0CD08F4B5B6803F00C0330
:10190C00082B12D18C4B5B6803F48033B3F5803F0A
:10191C000BD1894B1B6803F40033002B6CD07B6814
:10192C005B68002B68D101234CE27B685B68B3F5E4
:10193C00803F06D1804B1B687F4A43F48033136091
:10194C002EE07B685B68002B0CD17B4B1B687A4AC2
:10195C0023F480331360784B1B68774A23F480237D
:10196C0013601DE07B685B68B3F5A02F0CD1724B44
:10197C001B68714A43F4802313606F4B1B686E4ADB
:10198C0043F4803313600BE06B4B1B686A4A23F4FF
:10199C0080331360684B1B68674A23F48023136001
:1019AC007B685B68002B13D0FFF758FA386108E0AE
:1019BC00FFF754FA02463B69D31A642B01D903236F
:1019CC0000E25D4B1B6803F40033002BF0D014E0F5
:1019DC00FFF744FA386108E0FFF740FA02463B692A
:1019EC00D31A642B01D90323ECE1534B1B6803F48A
:1019FC000033002BF0D100E000BF7B681B6803F0C4
:101A0C000203002B63D04C4B5B6803F00C03002BE0
:101A1C000BD0494B5B6803F00C03082B1CD1464BD5
:101A2C005B6803F48033002B16D1434B1B6803F027
:101A3C000203002B05D07B681B69012B01D001230D
:101A4C00C0E13D4B1B6823F0F8027B685B69DB004F
:101A5C00394913430B603AE07B681B69002B20D09B
:101A6C00364B01221A60FFF7F9F9386108E0FFF7ED
:101A7C00F5F902463B69D31A022B01D90323A1E1E4
:101A8C002D4B1B6803F00203002BF0D02A4B1B6874
:101A9C0023F0F8027B685B69DB00274913430B607A
:101AAC0015E0264B00221A60FFF7D8F9386108E0E0
:101ABC00FFF7D4F902463B69D31A022B01D9032351
:101ACC0080E11D4B1B6803F00203002BF0D17B68F7
:101ADC001B6803F00803002B3AD07B689B69002B32
:101AEC0019D0174B01221A60FFF7B8F9386108E0DA
:101AFC00FFF7B4F902463B69D31A022B01D9032331
:101B0C0060E10D4B5B6A03F00203002BF0D0012067
:101B1C0000F0CEFA1CE00A4B00221A60FFF79EF987
:101B2C0038610FE0FFF79AF902463B69D31A022B92
:101B3C0008D9032346E100BF0010024000004242D6
:101B4C0080044242924B5B6A03F00203002BE9D102
:101B5C007B681B6803F00403002B00F0A6800023B5
:101B6C00FB758B4BDB6903F08053002B0DD1884B3D
:101B7C00DB69874A43F08053D361854BDB6903F003
:101B8C008053BB60BB680123FB75824B1B6803F45D
:101B9C008073002B18D17F4B1B687E4A43F48073F3
:101BAC001360FFF75BF9386108E0FFF757F902465D
:101BBC003B69D31A642B01D9032303E1754B1B68D2
:101BCC0003F48073002BF0D07B68DB68012B06D10B
:101BDC006F4B1B6A6E4A43F0010313622DE07B6866
:101BEC00DB68002B0CD16A4B1B6A694A23F001039A
:101BFC001362674B1B6A664A23F0040313621CE0F2
:101C0C007B68DB68052B0CD1614B1B6A604A43F087
:101C1C00040313625E4B1B6A5D4A43F001031362BB
:101C2C000BE05B4B1B6A5A4A23F001031362584BBF
:101C3C001B6A574A23F0040313627B68DB68002B92
:101C4C0015D0FFF70BF938610AE0FFF707F90246E8
:101C5C003B69D31A41F28832934201D90323B1E094
:101C6C004B4B1B6A03F00203002BEED014E0FFF782
:101C7C00F5F838610AE0FFF7F1F802463B69D31A30
:101C8C0041F28832934201D903239BE0404B1B6AFB
:101C9C0003F00203002BEED1FB7D012B05D13C4B55
:101CAC00DB693B4A23F08053D3617B68DB69002BF3
:101CBC0000F08780364B5B6803F00C03082B61D077
:101CCC007B68DB69022B46D1334B00221A60FFF78D
:101CDC00C5F8386108E0FFF7C1F802463B69D31A32
:101CEC00022B01D903236DE0294B1B6803F0007311
:101CFC00002BF0D17B681B6AB3F5803F08D1244BD5
:101D0C005B6823F400327B689B68214913434B606A
:101D1C001F4B5B6823F474127B68196A7B685B6ADF
:101D2C000B431B4913434B601B4B01221A60FFF7FB
:101D3C0095F8386108E0FFF791F802463B69D31A31
:101D4C00022B01D903233DE0114B1B6803F00073F8
:101D5C00002BF0D035E0104B00221A60FFF77EF814
:101D6C00386108E0FFF77AF802463B69D31A022B78
:101D7C0001D9032326E0064B1B6803F00073002BEC
:101D8C00F0D11EE07B68DB69012B07D1012319E040
:101D9C000010024000700040600042420B4B5B6838
:101DAC00FB60FB6803F480327B681B6A9A4206D1A5
:101DBC00FB6803F470127B685B6A9A4201D00123C2
:101DCC0000E0002318461837BD4680BD00100240C5
:101DDC0080B584B000AF786039607B68002B01D18E
:101DEC000123D0E06A4B1B6803F007033A689A4260
:101DFC0010D9674B1B6823F0070265493B681343F6
:101E0C000B60634B1B6803F007033A689A4201D0DE
:101E1C000123B8E07B681B6803F00203002B20D081
:101E2C007B681B6803F00403002B05D0594B5B68DF
:101E3C00584A43F4E06353607B681B6803F0080363
:101E4C00002B05D0534B5B68524A43F460535360EC
:101E5C00504B5B6823F0F0027B689B684D49134341
:101E6C004B607B681B6803F00103002B40D07B6840
:101E7C005B68012B07D1474B1B6803F40033002B25
:101E8C0015D101237FE07B685B68022B07D1414BA6
:101E9C001B6803F00073002B09D1012373E03D4B49
:101EAC001B6803F00203002B01D101236BE0394BBB
:101EBC005B6823F003027B685B68364913434B6015
:101ECC00FEF7CCFFF8600AE0FEF7C8FF0246FB689D
:101EDC00D31A41F28832934201D9032353E02D4B9C
:101EEC005B6803F00C027B685B689B009A42EBD149
:101EFC00274B1B6803F007033A689A4210D2244B15
:101F0C001B6823F0070222493B6813430B60204BEC
:101F1C001B6803F007033A689A4201D0012332E0B0
:101F2C007B681B6803F00403002B08D0194B5B681B
:101F3C0023F4E0627B68DB68164913434B607B68D3
:101F4C001B6803F00803002B09D0124B5B6823F4C9
:101F5C0060527B681B69DB000E4913434B6000F039
:101F6C0021F802460B4B5B681B0903F00F030A496F
:101F7C00CB5C22FA03F3094A1360094B1B68184621
:101F8C00FEF72AFF002318461037BD4680BD00BF60
:101F9C000020024000100240303E00085800002093
:101FAC005C00002080B487B000AF0023FB600023EE
:101FBC00BB6000237B6100237B6000233B611E4BD5
:101FCC005B68FB60FB6803F00C03042B02D0082B4E
:101FDC0003D027E0194B3B6127E0FB689B0C03F017
:101FEC000F03174AD35C7B60FB6803F48033002B30
:101FFC0010D0114B5B685B0C03F00103114AD35CEE
:10200C00BB607B680D4A03FB02F2BB68B2FBF3F3C7
:10201C007B6104E07B680C4A02FB03F37B617B6908
:10202C003B6102E0054B3B6100BF3B6918461C3726
:10203C00BD4680BC704700BF0010024000127A0001
:10204C00483E0008583E000800093D0080B400AF2F
:10205C00024B1B681846BD4680BC704758000020D8
:10206C0080B500AFFFF7F2FF0246054B5B681B0A19
:10207C0003F007030349CB5C22FA03F3184680BD37
:10208C0000100240403E000880B500AFFFF7DEFFB5
:10209C000246054B5B68DB0A03F007030349CB5C84
:1020AC0022FA03F3184680BD00100240403E00089F
:1020BC0080B485B000AF78600A4B1B680A4AA2FB5B
:1020CC0003235B0A7A6802FB03F3FB6000BFFB6827
:1020DC005A1EFA60002BF9D100BF00BF1437BD4661
:1020EC0080BC704758000020D34D621080B582B080
:1020FC0000AF78607B68002B01D1012341E07B6845
:10210C0093F83D30DBB2002B06D17B68002283F8BC
:10211C003C207868FEF7E0FC7B68022283F83D20C7
:10212C007B681A687B6804331946104600F05EFD24
:10213C007B68012283F846207B68012283F83E20CD
:10214C007B68012283F83F207B68012283F84020C2
:10215C007B68012283F841207B68012283F84220AE
:10216C007B68012283F843207B68012283F844209A
:10217C007B68012283F845207B68012283F83D208F
:10218C00002318460837BD4680BD000080B485B0DA
:10219C0000AF78607B6893F83D30DBB2012B01D047
:1021AC00012332E07B68022283F83D207B681B68A8
:1021BC00184A93420ED07B681B68B3F1804F09D04C
:1021CC007B681B68144A934204D07B681B68134AD3
:1021DC00934211D17B681B689B6803F00703FB607B
:1021EC00FB68062B10D07B681B681A687B681B6821
:1021FC0042F001021A6007E07B681B681A687B6872
:10220C001B6842F001021A60002318461437BD46C1
:10221C0080BC7047002C01400004004000080040C6
:10222C0080B582B000AF78607B68002B01D10123B0
:10223C0041E07B6893F83D30DBB2002B06D17B6824
:10224C00002283F83C207868FEF780FC7B68022231
:10225C0083F83D207B681A687B6804331946104666
:10226C0000F0C4FC7B68012283F846207B680122C5
:10227C0083F83E207B68012283F83F207B68012293
:10228C0083F840207B68012283F841207B6801227F
:10229C0083F842207B68012283F843207B6801226B
:1022AC0083F844207B68012283F845207B68012257
:1022BC0083F83D20002318460837BD4680BD00003A
:1022CC0080B584B000AF786039603B68002B09D1D1
:1022DC007B6893F83E30DBB2012B14BF0123002343
:1022EC00DBB222E03B68042B09D17B6893F83F30CA
:1022FC00DBB2012B14BF01230023DBB215E03B68DA
:10230C00082B09D17B6893F84030DBB2012B14BF4A
:10231C0001230023DBB208E07B6893F84130DBB289
:10232C00012B14BF01230023DBB2002B01D00123AE
:10233C005EE03B68002B04D17B68022283F83E20D0
:10234C0013E03B68042B04D17B68022283F83F2006
:10235C000BE03B68082B04D17B68022283F84020F9
:10236C0003E07B68022283F841207B681B68012212
:10237C003968184600F057FF7B681B681E4A934269
:10238C0007D17B681B685A6C7B681B6842F400425F
:10239C005A647B681B68184A93420ED07B681B6892
:1023AC00B3F1804F09D07B681B68144A934204D068
:1023BC007B681B68124A934211D17B681B689B682F
:1023CC0003F00703FB60FB68062B10D07B681B68CF
:1023DC001A687B681B6842F001021A6007E07B6890
:1023EC001B681A687B681B6842F001021A600023A4
:1023FC0018461037BD4680BD002C0140000400403B
:10240C000008004080B584B000AF786039600023CC
:10241C00FB733B68002B04D17B6893F83E30DBB236
:10242C0013E03B68042B04D17B6893F83F30DBB29C
:10243C000BE03B68082B04D17B6893F84030DBB28F
:10244C0003E07B6893F84130DBB2BB733B68002B35
:10245C0004D17B6893F84230DBB213E03B68042B69
:10246C0004D17B6893F84330DBB20BE03B68082B5C
:10247C0004D17B6893F84430DBB203E07B6893F8BB
:10248C004530DBB27B73BB7B012B02D17B7B012BF9
:10249C0001D00123B8E03B68002B04D17B680222F9
:1024AC0083F83E2013E03B68042B04D17B680222A6
:1024BC0083F83F200BE03B68082B04D17B68022299
:1024CC0083F8402003E07B68022283F841203B68BC
:1024DC00002B04D17B68022283F8422013E03B6876
:1024EC00042B04D17B68022283F843200BE03B6869
:1024FC00082B04D17B68022283F8442003E07B681C
:10250C00022283F845203B680C2B41D801A252F8DB
:10251C0023F000BF552500089D2500089D250008C7
:10252C009D250008672500089D2500089D250008AD
:10253C009D250008792500089D2500089D2500088B
:10254C009D2500088B2500087B681B68DA687B6872
:10255C001B6842F00202DA601DE07B681B68DA68D7
:10256C007B681B6842F00402DA6014E07B681B682D
:10257C00DA687B681B6842F00802DA600BE07B6863
:10258C001B68DA687B681B6842F01002DA6002E0B4
:10259C000123FB7300BFFB7B002B34D17B681B68D2
:1025AC0001223968184600F03EFE7B681B68184A09
:1025BC0093420ED07B681B68B3F1804F09D07B68C7
:1025CC001B68144A934204D07B681B68124A9342DE
:1025DC0011D17B681B689B6803F00703BB60BB6869
:1025EC00062B10D07B681B681A687B681B6842F04E
:1025FC0001021A6007E07B681B681A687B681B681D
:10260C0042F001021A60FB7B18461037BD4680BDB4
:10261C00002C0140000400400008004080B584B04C
:10262C0000AF78607B681B68DB68FB607B681B68AD
:10263C001B69BB60BB6803F00203002B20D0FB6856
:10264C0003F00203002B1BD07B681B686FF00202A7
:10265C001A617B6801221A777B681B689B6903F0FF
:10266C000303002B03D0786800F0A5FA05E0786826
:10267C0000F098FA786800F0A7FA7B6800221A77C5
:10268C00BB6803F00403002B20D0FB6803F00403A9
:10269C00002B1BD07B681B686FF004021A617B68EF
:1026AC0002221A777B681B689B6903F44073002B2A
:1026BC0003D0786800F07FFA05E0786800F072FAD1
:1026CC00786800F081FA7B6800221A77BB6803F007
:1026DC000803002B20D0FB6803F00803002B1BD051
:1026EC007B681B686FF008021A617B6804221A77FA
:1026FC007B681B68DB6903F00303002B03D078684D
:10270C0000F059FA05E0786800F04CFA786800F0AF
:10271C005BFA7B6800221A77BB6803F01003002B6E
:10272C0020D0FB6803F01003002B1BD07B681B68C8
:10273C006FF010021A617B6808221A777B681B689D
:10274C00DB6903F44073002B03D0786800F033FA94
:10275C0005E0786800F026FA786800F035FA7B68B6
:10276C0000221A77BB6803F00103002B0CD0FB6826
:10277C0003F00103002B07D07B681B686FF001028C
:10278C001A61786800F005FABB6803F08003002B2F
:10279C000CD0FB6803F08003002B07D07B681B6810
:1027AC006FF080021A61786800F0C9FDBB6803F015
:1027BC004003002B0CD0FB6803F04003002B07D028
:1027CC007B681B686FF040021A61786800F005FAAC
:1027DC00BB6803F02003002B0CD0FB6803F0200334
:1027EC00002B07D07B681B686FF020021A61786899
:1027FC0000F09CFD00BF1037BD4680BD80B586B093
:10280C0000AFF860B9607A600023FB75FB6893F841
:10281C003C30012B01D10223AEE0FB68012283F88E
:10282C003C207B680C2B00F29F8001A252F823F015
:10283C0071280008752900087529000875290008F9
:10284C00B1280008752900087529000875290008A9
:10285C00F328000875290008752900087529000857
:10286C0033290008FB681B68B968184600F02CFA7D
:10287C00FB681B689A69FB681B6842F008029A6146
:10288C00FB681B689A69FB681B6822F004029A615A
:10289C00FB681B689969BB681A69FB681B680A436B
:1028AC009A6164E0FB681B68B968184600F072FA1C
:1028BC00FB681B689A69FB681B6842F400629A61AA
:1028CC00FB681B689A69FB681B6822F480629A613A
:1028DC00FB681B689969BB681B691A02FB681B685B
:1028EC000A439A6143E0FB681B68B968184600F01C
:1028FC00BBFAFB681B68DA69FB681B6842F00802CC
:10290C00DA61FB681B68DA69FB681B6822F0040259
:10291C00DA61FB681B68D969BB681A69FB681B68BC
:10292C000A43DA6123E0FB681B68B968184600F0BB
:10293C0005FBFB681B68DA69FB681B6842F40062E4
:10294C00DA61FB681B68DA69FB681B6822F4806239
:10295C00DA61FB681B68D969BB681B691A02FB68E2
:10296C001B680A43DA6102E00123FB7500BFFB68B8
:10297C00002283F83C20FB7D18461837BD4680BDED
:10298C0080B584B000AF786039600023FB737B683E
:10299C0093F83C30012B01D10223B4E07B68012277
:1029AC0083F83C207B68022283F83D207B681B68FF
:1029BC009B68BB60BB6823F07703BB60BB6823F4E8
:1029CC007F43BB607B681B68BA689A603B681B6876
:1029DC00B3F5005F3ED0B3F5005F00F28780B3F52E
:1029EC00805F00F08680B3F5805F7FD8702B1AD0A3
:1029FC00702B7BD8602B50D0602B77D8502B3CD0D1
:102A0C00502B73D8402B58D0402B6FD8302B64D020
:102A1C00302B6BD8202B60D0202B67D8002B5CD0B0
:102A2C00102B5AD062E07B6818683B6899683B6849
:102A3C005A683B68DB6800F0D7FB7B681B689B68B7
:102A4C00BB60BB6843F07703BB607B681B68BA68EC
:102A5C009A604FE07B6818683B6899683B685A68D5
:102A6C003B68DB6800F0C0FB7B681B689A687B687E
:102A7C001B6842F480429A603CE07B6818683B68B3
:102A8C0059683B68DB681A4600F037FB7B681B68AB
:102A9C005021184600F08EFB2CE07B6818683B68D0
:102AAC0059683B68DB681A4600F055FB7B681B686D
:102ABC006021184600F07EFB1CE07B6818683B68C0
:102ACC0059683B68DB681A4600F017FB7B681B688B
:102ADC004021184600F06EFB0CE07B681A683B68DE
:102AEC001B681946104600F065FB03E00123FB73DD
:102AFC0000E000BF7B68012283F83D207B68002248
:102B0C0083F83C20FB7B18461037BD4680BD80B552
:102B1C0082B000AF786039607B6893F83C30012B51
:102B2C0001D1022331E07B68012283F83C207B68D1
:102B3C00022283F83D203968786800F04DFA03468C
:102B4C00002B09D07B68012283F83D207B68002292
:102B5C0083F83C20012318E07B681B68DA687B68EB
:102B6C001B6822F04002DA607B681B68DA687B68BD
:102B7C001B6822F48042DA607B68012283F83D20D6
:102B8C007B68002283F83C20002318460837BD469A
:102B9C0080BD80B483B000AF786000BF0C37BD46F9
:102BAC0080BC704780B483B000AF786000BF0C3736
:102BBC00BD4680BC704780B483B000AF786000BF66
:102BCC000C37BD4680BC704780B483B000AF7860D2
:102BDC0000BF0C37BD4680BC704780B483B000AFDB
:102BEC00786000BF0C37BD4680BC704780B485B0A0
:102BFC0000AF786039607B681B68FB607B682F4A8C
:102C0C0093420BD07B68B3F1804F07D07B682C4A82
:102C1C00934203D07B682B4A934208D1FB6823F084
:102C2C007003FB603B685B68FA681343FB607B686E
:102C3C00224A93420BD07B68B3F1804F07D07B685C
:102C4C001F4A934203D07B681E4A934208D1FB680B
:102C5C0023F44073FB603B68DB68FA681343FB604A
:102C6C00FB6823F080023B685B691343FB607B6865
:102C7C00FA681A603B689A687B68DA623B681A6883
:102C8C007B689A627B680D4A934203D13B681A6950
:102C9C007B681A637B6801225A617B681B6903F0AD
:102CAC000103002B05D07B681B6923F001027B68B4
:102CBC001A6100BF1437BD4680BC7047002C014020
:102CCC00000400400008004080B487B000AF78607A
:102CDC0039607B681B6A7B617B681B6A23F001028D
:102CEC007B681A627B685B683B617B689B69FB60F5
:102CFC00FB6823F07003FB60FB6823F00303FB60AD
:102D0C003B681B68FA681343FB607B6923F0020382
:102D1C007B613B689B687A6913437B617B681C4AC7
:102D2C0093420CD17B6923F008037B613B68DB6821
:102D3C007A6913437B617B6923F004037B617B68B5
:102D4C00134A934211D13B6923F480733B613B6975
:102D5C0023F400733B613B685B693A6913433B6145
:102D6C003B689B693A6913433B617B683A695A60DB
:102D7C007B68FA689A613B685A687B685A637B681F
:102D8C007A691A6200BF1C37BD4680BC704700BF11
:102D9C00002C014080B487B000AF786039607B684C
:102DAC001B6A7B617B681B6A23F010027B681A62CA
:102DBC007B685B683B617B689B69FB60FB6823F409
:102DCC00E043FB60FB6823F44073FB603B681B68CB
:102DDC001B02FA681343FB607B6923F020037B61C1
:102DEC003B689B681B017A6913437B617B681D4AB6
:102DFC0093420DD17B6923F080037B613B68DB68D8
:102E0C001B017A6913437B617B6923F040037B616F
:102E1C007B68144A934213D13B6923F480633B6172
:102E2C003B6923F400633B613B685B699B003A6937
:102E3C0013433B613B689B699B003A6913433B61BD
:102E4C007B683A695A607B68FA689A613B685A6891
:102E5C007B689A637B687A691A6200BF1C37BD462F
:102E6C0080BC7047002C014080B487B000AF786004
:102E7C0039607B681B6A7B617B681B6A23F48072F8
:102E8C007B681A627B685B683B617B68DB69FB6013
:102E9C00FB6823F07003FB60FB6823F00303FB600B
:102EAC003B681B68FA681343FB607B6923F400736F
:102EBC007B613B689B681B027A6913437B617B686F
:102ECC001D4A93420DD17B6923F400637B613B68FF
:102EDC00DB681B027A6913437B617B6923F4806393
:102EEC007B617B68144A934213D13B6923F4805372
:102EFC003B613B6923F400533B613B685B691B01FD
:102F0C003A6913433B613B689B691B013A69134364
:102F1C003B617B683A695A607B68FA68DA613B68A6
:102F2C005A687B68DA637B687A691A6200BF1C375F
:102F3C00BD4680BC704700BF002C014080B487B0F8
:102F4C0000AF786039607B681B6A3B617B681B6AE9
:102F5C0023F480527B681A627B685B687B617B68B8
:102F6C00DB69FB60FB6823F4E043FB60FB6823F444
:102F7C004073FB603B681B681B02FA681343FB60E1
:102F8C003B6923F400533B613B689B681B033A6924
:102F9C0013433B617B680F4A934209D17B6923F44D
:102FAC0080437B613B685B699B017A6913437B615E
:102FBC007B687A695A607B68FA68DA613B685A68A0
:102FCC007B681A647B683A691A6200BF1C37BD467D
:102FDC0080BC7047002C014080B586B000AF786093
:102FEC0039600023FB757B681B689B683B613B6900
:102FFC0023F070033B613B685B683A6913433B61A8
:10300C003B6923F007033B613B681B683A69134338
:10301C003B617B681B683A699A603B685B68702B04
:10302C001AD0702B60D8602B54D0602B5CD8502BEE
:10303C0046D0502B58D8402B19D0402B54D8302B7D
:10304C0055D0302B50D8202B51D0202B4CD8002BC6
:10305C004DD0102B4BD047E07B6818683B68D96883
:10306C003B689A683B681B6900F0BEF840E03B681F
:10307C001B68052B01D101233BE07B681B681B6A95
:10308C00FB607B681B681A6A7B681B6822F0010274
:10309C001A627B681B689B69BB60BB6823F0F003FA
:1030AC00BB603B681B691B01BA681343BB607B6840
:1030BC001B68BA689A617B681B68FA681A6217E029
:1030CC007B6818683B6899683B681B691A4600F076
:1030DC0014F80DE07B6818683B6899683B681B69BD
:1030EC001A4600F038F803E00123FB7500E000BF3E
:1030FC00FB7D18461837BD4680BD80B487B000AF45
:10310C00F860B9607A60FB681B6A7B61FB681B6ABC
:10311C0023F00102FB681A62FB689B693B613B6907
:10312C0023F0F0033B617B681B013A6913433B615D
:10313C007B6923F00A037B617A69BB6813437B616B
:10314C00FB683A699A61FB687A691A6200BF1C379E
:10315C00BD4680BC704780B487B000AFF860B960E2
:10316C007A60FB681B6A7B61FB681B6A23F01002A8
:10317C00FB681A62FB689B693B613B6923F47043F3
:10318C003B617B681B033A6913433B617B6923F00A
:10319C00A0037B61BB681B017A6913437B61FB68ED
:1031AC003A699A61FB687A691A6200BF1C37BD469E
:1031BC0080BC704780B485B000AF786039607B68A4
:1031CC009B68FB60FB6823F07003FB603A68FB684C
:1031DC00134343F00703FB607B68FA689A6000BFF7
:1031EC001437BD4680BC704780B487B000AFF86020
:1031FC00B9607A603B60FB689B687B617B6923F4F8
:10320C007F437B613B681A027B681A43BB6813439C
:10321C007A6913437B61FB687A699A6000BF1C373B
:10322C00BD4680BC704780B487B000AFF860B96011
:10323C007A60BB6803F01F03012202FA03F37B617F
:10324C00FB681A6A7B69DB431A40FB681A62FB68ED
:10325C001A6ABB6803F01F03796801FA03F31A4377
:10326C00FB681A6200BF1C37BD4680BC704700006B
:10327C0080B485B000AF786039607B6893F83C30DF
:10328C00012B01D1022346E07B68012283F83C200C
:10329C007B68022283F83D207B681B685B68FB60BF
:1032AC007B681B689B68BB60FB6823F07003FB604A
:1032BC003B681B68FA681343FB607B681B68FA6801
:1032CC005A607B681B68164A93420ED07B681B6859
:1032DC00B3F1804F09D07B681B68124A934204D02B
:1032EC007B681B68104A93420CD1BB6823F08003A7
:1032FC00BB603B685B68BA681343BB607B681B6848
:10330C00BA689A607B68012283F83D207B680022B2
:10331C0083F83C20002318461437BD4680BC704708
:10332C00002C0140000400400008004080B483B031
:10333C0000AF786000BF0C37BD4680BC704780B4CE
:10334C0083B000AF786000BF0C37BD4680BC7047BF
:10335C0080B582B000AF78607B68002B01D101236F
:10336C0042E07B6893F84130DBB2002B06D17B68DE
:10337C00002283F840207868FDF73CFC7B6824220F
:10338C0083F841207B681B68DA687B681B6822F431
:10339C000052DA60786800F07FFC7B681B681A6961
:1033AC007B681B6822F490421A617B681B685A691F
:1033BC007B681B6822F02A025A617B681B68DA68FA
:1033CC007B681B6842F40052DA607B6800225A6406
:1033DC007B68202283F841207B68202283F84220DE
:1033EC007B6800225A63002318460837BD4680BD0F
:1033FC0080B5BAB000AF78607B681B681B68C7F8F3
:10340C00E4307B681B68DB68C7F8E0307B681B68BE
:10341C005B69C7F8DC300023C7F8D8300023C7F845
:10342C00D430D7F8E43003F00F03C7F8D830D7F80E
:10343C00D830002B0FD1D7F8E43003F02003002B49
:10344C0009D0D7F8E03003F02003002B03D07868C4
:10345C0000F063FB5BE2D7F8D830002B00F0DE8085
:10346C00D7F8DC3003F00103002B06D1D7F8E0309D
:10347C0003F49073002B00F0D180D7F8E43003F004
:10348C000103002B0BD0D7F8E03003F48073002B32
:10349C0005D07B685B6C43F001027B685A64D7F8FB
:1034AC00E43003F00403002B0BD0D7F8DC3003F02E
:1034BC000103002B05D07B685B6C43F002027B6838
:1034CC005A64D7F8E43003F00203002B0BD0D7F882
:1034DC00DC3003F00103002B05D07B685B6C43F000
:1034EC0004027B685A64D7F8E43003F00803002B1D
:1034FC0011D0D7F8E03003F02003002B05D1D7F81A
:10350C00DC3003F00103002B05D07B685B6C43F0CF
:10351C0008027B685A647B685B6C002B00F0F281BC
:10352C00D7F8E43003F02003002B08D0D7F8E030B4
:10353C0003F02003002B02D0786800F0EEFA7B68D1
:10354C001B685B6903F04003002B14BF01230023AD
:10355C00DBB2C7F8D4307B685B6C03F00803002B3C
:10356C0003D1D7F8D430002B4FD0786800F0F8F99D
:10357C007B681B685B6903F04003002B41D07B68C0
:10358C001B681433C7F89C30D7F89C3053E8003FC5
:10359C00C7F89830D7F8983023F04003C7F8D030EC
:1035AC007B681B681433D7F8D020C7F8A820C7F85D
:1035BC00A430D7F8A410D7F8A82041E80023C7F806
:1035CC00A030D7F8A030002BD9D17B68DB6B002B57
:1035DC0013D07B68DB6B7E4A5A637B68DB6B1846C7
:1035EC00FDF7B2FD0346002B16D07B68DB6B5B6BE3
:1035FC007A68D26B104698470EE0786800F09CF918
:10360C000AE0786800F098F906E0786800F094F920
:10361C007B6800225A6475E100BF73E17B681B6B09
:10362C00012B40F04F81D7F8E43003F01003002B4E
:10363C0000F04881D7F8E03003F01003002B00F0C5
:10364C0041810023BB607B681B681B68BB607B6887
:10365C001B685B68BB60BB687B681B685B6903F0BD
:10366C004003002B00F0B6807B68DB6B1B685B684B
:10367C00A7F8BE30B7F8BE30002B00F045817B6850
:10368C009B8DB7F8BE209A4280F03E817B68B7F8DC
:10369C00BE20DA857B68DB6B9B69202B00F0888071
:1036AC007B681B680C33C7F88830D7F8883053E830
:1036BC00003FC7F88430D7F8843023F48073C7F800
:1036CC00B8307B681B680C33D7F8B820C7F8942047
:1036DC00C7F89030D7F89010D7F8942041E8002321
:1036EC00C7F88C30D7F88C30002BD9D17B681B688D
:1036FC0014337B677B6F53E8003F3B673B6F23F0D2
:10370C000103C7F8B4307B681B681433D7F8B420B6
:10371C00C7F88020FB67F96FD7F8802041E80023B9
:10372C00BB67BB6F002BE1D17B681B6814333B6616
:10373C003B6E53E8003FFB65FB6D23F04003C7F87D
:10374C00B0307B681B681433D7F8B020FA66BB66C0
:10375C00B96EFA6E41E800237B667B6E002BE3D1D9
:10376C007B68202283F842207B6800221A637B68E6
:10377C001B680C33FB64FB6C53E8003FBB64BB6CF5
:10378C0023F01003C7F8AC307B681B680C33D7F8F8
:10379C00AC20BA657B65796DBA6D41E800233B6559
:1037AC003B6D002BE3D17B68DB6B1846FDF791FC7E
:1037BC007B6802225A637B689A8D7B68DB8D9BB297
:1037CC00D31A9BB21946786800F0BFF89CE000BF92
:1037DC00313A00087B689A8D7B68DB8D9BB2D31ADB
:1037EC00A7F8CE307B68DB8D9BB2002B00F08E806F
:1037FC00B7F8CE30002B00F089807B681B680C3347
:10380C00BB63BB6B53E8003F7B637B6B23F4907310
:10381C00C7F8C8307B681B680C33D7F8C8207A64AB
:10382C003B64396C7A6C41E80023FB63FB6B002B27
:10383C00E3D17B681B6814337B627B6A53E8003FDF
:10384C003B623B6A23F00103C7F8C4307B681B68FA
:10385C001433D7F8C4203A63FB62F96A3A6B41E837
:10386C000023BB62BB6A002BE3D17B68202283F868
:10387C0042207B6800221A637B681B680C333B6117
:10388C003B6953E8003FFB60FB6823F01003C7F86B
:10389C00C0307B681B680C33D7F8C020FA61BB6161
:1038AC00B969FA6941E800237B617B69002BE3D19C
:1038BC007B6802225A63B7F8CE301946786800F05C
:1038CC0044F823E0D7F8E43003F08003002B09D050
:1038DC00D7F8E03003F08003002B03D0786800F0B9
:1038EC00B5F814E0D7F8E43003F04003002B0ED009
:1038FC00D7F8E03003F04003002B08D0786800F0D4
:10390C00F4F804E000BF02E000BF00E000BFE837BD
:10391C00BD4680BD80B483B000AF786000BF0C376B
:10392C00BD4680BC704780B483B000AF786000BFE8
:10393C000C37BD4680BC704780B483B000AF786054
:10394C0000BF0C37BD4680BC704780B483B000AF5D
:10395C0078600B467B8000BF0C37BD4680BC70473F
:10396C0080B495B000AF78607B681B680C337B63C8
:10397C007B6B53E8003F3B633B6B23F49073FB641E
:10398C007B681B680C33FA6C3A64FB63F96B3A6C1A
:10399C0041E80023BB63BB6B002BE5D17B681B6844
:1039AC0014333B623B6A53E8003FFB61FB6923F035
:1039BC000103BB647B681B681433BA6CFA62BB628C
:1039CC00B96AFA6A41E800237B627B6A002BE5D175
:1039DC007B681B6B012B19D17B681B680C33FB605C
:1039EC00FB6853E8003FBB60BB6823F010037B64AB
:1039FC007B681B680C337A6CBA617B617969BA6934
:103A0C0041E800233B613B69002BE5D17B68202218
:103A1C0083F842207B6800221A6300BF5437BD46EE
:103A2C0080BC704780B584B000AF78607B685B6AFF
:103A3C00FB60FB680022DA85FB680022DA84F868F8
:103A4C00FFF77AFF00BF1037BD4680BD80B485B04C
:103A5C0000AF78607B6893F84130DBB2212B3ED10C
:103A6C007B689B68B3F5805F14D17B681B69002B66
:103A7C0010D17B681B6AFB60FB681B881A467B684D
:103A8C001B68C2F308025A607B681B6A9A1C7B682D
:103A9C001A6208E07B681B6A591C7A6811621A78F2
:103AAC007B681B685A607B68DB8C9BB2013B9BB2CA
:103ABC007A681946D184002B0FD17B681B68DA68B1
:103ACC007B681B6822F08002DA607B681B68DA680E
:103ADC007B681B6842F04002DA60002300E002239E
:103AEC0018461437BD4680BC704780B582B000AF15
:103AFC0078607B681B68DA687B681B6822F0400280
:103B0C00DA607B68202283F841207868FFF702FF97
:103B1C00002318460837BD4680BD80B58CB000AF79
:103B2C0078607B6893F84230DBB2222B40F0AE8099
:103B3C007B689B68B3F5805F17D17B681B69002B92
:103B4C0013D10023FB627B689B6ABB627B681B689A
:103B5C005B689BB2C3F308039AB2BB6A1A807B689A
:103B6C009B6A9A1C7B689A6226E07B689B6AFB6264
:103B7C000023BB627B689B68B3F5805F07D07B68D2
:103B8C009B68002B0AD17B681B69002B06D17B68D4
:103B9C001B685B68DAB2FB6A1A7008E07B681B680A
:103BAC005B68DBB203F07F03DAB2FB6A1A707B68E6
:103BBC009B6A5A1C7B689A627B68DB8D9BB2013BCB
:103BCC009BB27A681946D185002B5DD17B681B6846
:103BDC00DA687B681B6822F02002DA607B681B685D
:103BEC00DA687B681B6822F48072DA607B681B6879
:103BFC005A697B681B6822F001025A617B6820229B
:103C0C0083F842207B6800225A637B681B6B012B74
:103C1C0035D17B6800221A637B681B680C337B618F
:103C2C007B6953E8003F3B613B6923F010037B62E7
:103C3C007B681B680C337A6A3A62FB61F9693A6AF1
:103C4C0041E80023BB61BB69002BE5D17B681B6895
:103C5C001B6803F01003102B0AD10023FB607B6858
:103C6C001B681B68FB607B681B685B68FB60FB6800
:103C7C007B689B8D19467868FFF767FE02E07868D1
:103C8C00FFF751FE002302E0002300E00223184658
:103C9C003037BD4680BD000080B584B000AF786081
:103CAC007B681B681B6923F440517B68DA687B686E
:103CBC001B680A431A617B689A687B681B691A4304
:103CCC007B685B691343BB607B681B68DB6823F410
:103CDC00B05323F00C037A681268B9680B43D360B5
:103CEC007B681B685B6923F440717B689A697B680D
:103CFC001B680A435A617B681B682C4A934203D1A8
:103D0C00FEF7C2F9F86002E0FEF7AAF9F860FA686B
:103D1C0013469B0013449A001A447B685B689B0013
:103D2C00B2FBF3F3224AA2FB03235B091901FA68E5
:103D3C0013469B0013449A001A447B685B689B00F3
:103D4C00B2FBF3F21A4BA3FB02035B09642000FBEA
:103D5C0003F3D31A1B013233154AA2FB03235B096D
:103D6C0003F0F0031944FA6813469B0013449A00BD
:103D7C001A447B685B689B00B2FBF3F20C4BA3FB11
:103D8C0002035B09642000FB03F3D31A1B013233DB
:103D9C00074AA2FB03235B0903F00F027B681B6835
:103DAC000A449A6000BF1037BD4680BD0038014000
:103DBC001F85EB5103460244934200D1704703F830
:103DCC00011BF9E770B500260C4D0D4B5B1B9C10CD
:103DDC00A64209D1002600F019F80A4D0A4B5B1BCC
:103DEC009C10A64205D170BD55F8043B984701368E
:103DFC00EEE755F8043B98470136F2E75C3E0008C5
:103E0C005C3E00085C3E0008603E0008F8B500BF50
:103E1C00F8BC08BC9E467047F8B500BFF8BC08BC9F
:043E2C009E467047F7
:103E3000000000000000000001020304060708095A
:103E4000000000000102030402030405060708093C
:0C3E50000A0B0C0D0E0F101001020000F8
:043E5C003101000828
:043E60000D01000848
:103E6400000801401000200040008000CC00002029
:103E7400000000000400000063000000000C01408A
:103E84000100020000040008CC000020080000002B
:103E94000C00000063000000000C014008000080DA
:103EA4000040002000100000000C014080000000D1
:103EB400140100200800000000127A001000000025
:043EC40001000000F9
:0400000508000D6D75
:00000001FF
